:100000000C940F030C9437030C9437030C943703B0
:100010000C9437030C9437030C9437030C94370378
:100020000C9437030C9437030C9437030C94370368
:100030000C9437030C9437030C9437030C94370358
:100040000C949D0F0C9437030C940D100C94E70F37
:100050000C9437030C9437030C9437030C94370338
:100060000C943F100C94370308000000BE92244902
:10007000123EABAAAA2ABECDCCCC4C3E00000080DA
:10008000BEABAAAAAA3E00000000BF000000803F4D
:100090000000000000084178D3BB4387D1133D190D
:1000A0000E3CC3BD4282AD2B3E68EC8276BED98F3A
:1000B000E1A93E4C80EFFFBE01C4FF7F3F0000007E
:1000C000000000000000003E5B4F5B3E3E6B4F6B4C
:1000D0003E1C3E7C3E1C183C7E3C181C577D571C29
:1000E0001C5E7F5E1C00183C1800FFE7C3E7FF00A2
:1000F00018241800FFE7DBE7FF30483A060E2629F0
:10010000792926407F050507407F05253F5A3CE7B2
:100110003C5A7F3E1C1C08081C1C3E7F14227F2278
:10012000145F5F005F5F06097F017F006689956A43
:10013000606060606094A2FFA29408047E040810CE
:10014000207E201008082A1C08081C2A08081E10F7
:100150001010100C1E0C1E0C30383E3830060E3EAF
:100160000E06000000000000005F0000000700070E
:1001700000147F147F14242A7F2A12231308646238
:1001800036495620500008070300001C2241000099
:1001900041221C002A1C7F1C2A08083E08080080F7
:1001A000703000080808080800006060002010088F
:1001B00004023E5149453E00427F40007249494990
:1001C000462141494D331814127F102745454539C2
:1001D0003C4A4949314121110907364949493646C6
:1001E0004949291E000014000000403400000008A6
:1001F0001422411414141414004122140802015949
:1002000009063E415D594E7C1211127C7F494949D5
:10021000363E414141227F4141413E7F494949416A
:100220007F090909013E414151737F0808087F0099
:10023000417F41002040413F017F081422417F401F
:100240004040407F021C027F7F0408107F3E4141F6
:10025000413E7F090909063E4151215E7F09192966
:1002600046264949493203017F01033F4040403F50
:100270001F2040201F3F4038403F63140814630391
:10028000047804036159494D43007F414141020410
:10029000081020004141417F040201020440404017
:1002A0004040000307080020545478407F2844440D
:1002B000383844444428384444287F385454541827
:1002C00000087E090218A4A49C787F080404780022
:1002D000447D40002040403D007F10284400004104
:1002E0007F40007C047804787C0804047838444417
:1002F0004438FC1824241818242418FC7C0804040E
:1003000008485454542404043F44243C4040207C76
:100310001C2040201C3C4030403C44281028444CC9
:100320009090907C4464544C440008364100000096
:10033000770000004136080002010204023C262337
:10034000263C1EA1A161123A4040207A38545455EF
:1003500059215555794122545478422155547840B9
:1003600020545579400C1E52721239555555593941
:100370005454545939555454580000457C41000296
:10038000457D420001457C407D1211127DF02825FB
:1003900028F07C545545002054547C547C0A097F35
:1003A0004932494949323A4444443A324A48483049
:1003B0003A4141217A3A42402078009DA0A07D3DFB
:1003C0004242423D3D4040403D3C24FF2424487E83
:1003D0004943662B2FFC2F2BFF0929F620C0887E6E
:1003E000090320545479410000447D413048484A73
:1003F00032384040227A007A0A0A727D0D19317D26
:100400002629292F28262929292630484D402038F9
:100410000808080808080808382F10C8ACBA2F10B8
:100420002834FA00007B000008142A142222142A1F
:1004300014085500550055AA55AA55AAFF55FF5551
:10044000FF000000FF00101010FF00141414FF0044
:100450001010FF00FF1010F010F0141414FC001422
:1004600014F700FF0000FF00FF1414F404FC141440
:1004700017101F10101F101F1414141F001010103D
:10048000F0000000001F101010101F10101010F0CE
:1004900010000000FF101010101010101010FF10AE
:1004A000000000FF140000FF00FF00001F101700F5
:1004B00000FC04F414141710171414F404F40000CE
:1004C000FF00F714141414141414F700F714141480
:1004D000171410101F101F141414F4141010F0101F
:1004E000F000001F101F0000001F14000000FC148B
:1004F0000000F010F01010FF10FF141414FF14107F
:1005000010101F00000000F010FFFFFFFFFFF0F0D1
:10051000F0F0F0FFFFFF0000000000FFFF0F0F0FE3
:100520000F0F3844443844FC4A4A4A347E020206DB
:1005300006027E027E0263554941633844443C040E
:10054000407E201E2006027E020299A5E7A5991C86
:100550002A492A1C4C7201724C304A4D4D303048A9
:10056000784830BC625A463D3E494949007E010107
:10057000017E2A2A2A2A2A44445F444440514A449C
:100580004040444A51400000FF0103E080FF00006A
:1005900008086B6B083612362436060F090F060062
:1005A0000018180000001010003040FF0101001F6B
:1005B00001011E00191D1712003C3C3C3C000000CC
:1005C000000000000000240027002A0000000008AE
:1005D000000201000003040700000000000000000A
:1005E000000000002300260029000102040810205A
:1005F00040800102040810200102040810200000BD
:100600000000250028002B00040404040404040452
:100610000202020202020303030303035A1111241C
:100620001FBECFEFD8E0DEBFCDBF13E0A0E0B1E04A
:10063000E8EFF7E302C005900D92A837B107D9F7AC
:1006400025E0A8E7B3E001C01D92AD30B207E1F7A5
:1006500013E0CFE0D3E004C02197FE010E94CA1A44
:10066000CE30D107C9F70E949B120C94FA1B0C9450
:100670000000FC0120812EBD0DB407FEFDCF2EB57C
:10068000FC0120830895833081F028F4813099F0B3
:100690008230A9F008958730A9F08830C9F08430FD
:1006A000B1F4809180008F7D03C0809180008F77AE
:1006B00080938000089584B58F7784BD089584B5B4
:1006C0008F7DFBCF8091B0008F778093B00008952D
:1006D0008091B0008F7DF9CF1F93CF93DF93282FA8
:1006E00030E0F901E453FA4F8491F901E651FA4FF1
:1006F000D491F901E85FF94FC491CC23A9F0162FEA
:1007000081110E944303EC2FF0E0EE0FFF1FE25037
:10071000FA4FA591B4918FB7F894EC91111108C0DC
:10072000D095DE23DC938FBFDF91CF911F91089589
:10073000DE2BF8CFCF93DF9390E0FC01E651FA4F28
:100740002491885F994FFC0184918823D1F090E037
:10075000880F991FFC01EE53FA4FA591B491FC014B
:10076000E250FA4FC591D49161110EC09FB7F89431
:100770008C91E22FE0958E238C932881E223E883ED
:100780009FBFDF91CF9108958FB7F894EC91E22B42
:10079000EC938FBFF6CF8E50806480937C00809165
:1007A0007A00806480937A0080917A0086FDFCCF85
:1007B000809178009091790008958230910538F009
:1007C000880F991F880F991F05970197F1F70895D2
:1007D0009F92AF92BF92CF92DF92EF92FF920F93D0
:1007E0001F93CF93DF93EC016B018885998511E00E
:1007F000892B09F010E8F601A0808A2D8123992425
:1008000093948111912C2C813D814E815F8160E216
:1008100071EA87E090E00E94A217022FB12CE22E2D
:10082000F12C002319F0C7010E94DD038A85877F20
:1008300009F04FC08D858F3F89F09A2D912381E07B
:1008400009F480E0891551F0EF85F8898F899923A3
:10085000D1F19081892B808399249394E989FA8935
:100860008081998D892B8083002319F0C7010E9414
:10087000DD038E858F3F39F0EB89FC898081988D6F
:10088000892309F0B12AE989FA899081898D8095B7
:10089000892380838E858F3F11F0F601B082888591
:1008A0009985892B09F044C0110F1111BACFDF913E
:1008B000CF911F910F91FF90EF90DF90CF90BF905D
:1008C000AF909F9008959081809589238083912C8B
:1008D000C5CFE989FA898081998D892B808300238E
:1008E00019F0C7010E94DD038D858F3F49F0EF8528
:1008F000F8898F899A2D9123B9F09081892B808373
:10090000E989FA899081898D8095892380838E85F4
:100910008F3F09F4BFCFEB89FC898081988D8923B3
:1009200009F4B8CFB12AB6CF908180958923E7CF5B
:100930001695BBCFAF92BF92CF92DF92EF92FF920C
:100940000F931F93CF93DF931F92CDB7DEB78C0128
:100950005B016A01DC018D919C911197892B39F023
:100960001296ED91FC91908181819CBD8DBDF80125
:1009700083858F3F19F060E00E946C037501CA0CFB
:10098000DB1CCE14DF04A9F0D7018D917D01898392
:10099000F80180819181892B29F0CE0101960E9476
:1009A0003903EFCFBE016F5F7F4FC8010E94E8039C
:1009B000E8CFD8011B968C918F3F19F061E00E941F
:1009C0006C0381E00F90DF91CF911F910F91FF9009
:1009D000EF90DF90CF90BF90AF9008953FB7F8941D
:1009E0008091F5039091F603A091F703B091F8037D
:1009F00026B5A89B05C02F3F19F00196A11DB11D7A
:100A00003FBFBA2FA92F982F8827BC01CD01620FB5
:100A1000711D811D911D42E0660F771F881F991F70
:100A20004A95D1F708958F929F92AF92BF92CF923D
:100A3000DF92EF92FF924B015C010E94EE046B018A
:100A40007C010E94EE046C197D098E099F09683EA5
:100A5000734081059105A8F321E0821A9108A1084D
:100A6000B10888EEC80E83E0D81EE11CF11C811489
:100A70009104A104B10429F7FF90EF90DF90CF908B
:100A8000BF90AF909F908F900895DC01ED91FC9105
:100A90000190F081E02D0994AF92BF92CF92DF9246
:100AA000EF92FF920F931F93CF93DF936C017B0123
:100AB0008B01040F151FEB015E01AE18BF08C017B4
:100AC000D10759F06991D601ED91FC910190F08127
:100AD000E02DC6010995892B79F7C501DF91CF91EA
:100AE0001F910F91FF90EF90DF90CF90BF90AF904C
:100AF0000895FC01538D448D252F30E0842F90E024
:100B0000821B930B541710F0CF9608950197089508
:100B1000FC01918D828D981761F0A28DAE0FBF2FD1
:100B2000B11D5D968C91928D9F5F9F73928F90E027
:100B300008958FEF9FEF0895FC01918D828D981796
:100B400031F0828DE80FF11D858D90E008958FEFD3
:100B50009FEF0895FC01918D228D892F90E0805C9C
:100B60009F4F821B91098F739927089589EF93E016
:100B70000E94AA0521E0892B09F420E0822F089524
:100B800080E090E0892B29F00E94B60581110C9439
:100B900000000895FC01A48DA80FB92FB11DA35A20
:100BA000BF4F2C91848D90E001968F739927848F8D
:100BB000A689B7892C93A089B1898C9183708064B0
:100BC0008C93938D848D981306C00288F389E02D51
:100BD00080818F7D80830895EF92FF920F931F9302
:100BE000CF93DF93EC0181E0888F9B8D8C8D9813E0
:100BF0001AC0E889F989808185FF15C09FB7F894EC
:100C0000EE89FF896083E889F98980818370806437
:100C100080839FBF81E090E0DF91CF911F910F9182
:100C2000FF90EF900895F62E0B8D10E00F5F1F4F91
:100C30000F731127E02E8C8D8E110CC00FB607FCA0
:100C4000FACFE889F989808185FFF5CFCE010E942E
:100C5000CA05F1CFEB8DEC0FFD2FF11DE35AFF4FCD
:100C6000F0829FB7F8940B8FEA89FB8980818062BC
:100C7000CFCFCF93DF93EC01888D8823B9F0AA8979
:100C8000BB89E889F9898C9185FD03C0808186FD47
:100C90000DC00FB607FCF7CF8C9185FFF2CF808196
:100CA00085FFEDCFCE010E94CA05E9CFDF91CF913C
:100CB000089520919F03260F3327331F21323105DA
:100CC000ECF42091C303FC0190E080E0243069F053
:100CD00082E00895A0919F032191AC0141585C4F9F
:100CE000A40FB52FB11D2C930196861798F3809110
:100CF0009F03680F60939F0380E0089581E008954B
:100D000008958FEF9FEF08958FEF9FEF08958091E3
:100D1000780390E09195819591090895CF93DF93A1
:100D2000CB01EA01642F0E945906CE01DF91CF91D9
:100D30000895CF93DF931F92CDB7DEB7698361E04B
:100D4000CE0101960E94590681E090E00F90DF915C
:100D5000CF9108950895FC016370668B848195811D
:100D600026813781613039F0633029F0918780879F
:100D70003387228708953187208793878287089554
:100D80002F923F924F925F926F927F928F929F929B
:100D9000AF92BF92CF92DF92EF92FF920F931F9389
:100DA000CF93DF93CDB7DEB76A970FB6F894DEBF67
:100DB0000FBECDBF9A8F898F7A8369834A01D22E65
:100DC00018870F833701BC2CDC0159962D913C917B
:100DD0005A972115310509F015C118968D919C91EE
:100DE0001997681779070CF0D7C11A968D919C91C5
:100DF000481759070CF0D0C14C2C512CB6E0CB9EB3
:100E0000600D711D11247C876B87161617060CF078
:100E1000C3C1EA2DF0E0FA87E98793E0EE0FFF1FE8
:100E20009A95E1F7F88BEF87CF01840F951F18167D
:100E300019060CF0B1C1A98DBA8D58968C9181110B
:100E400004C0BFEABD1508F4D394A98DBA8DED9105
:100E5000FC9111970284F385E02DCD010995B5E051
:100E6000DB9EC0011124E981FA81FC83EB83312CE4
:100E7000212C9C012E533F4F388F2F8B4A2D50E051
:100E80005E8B4D8BEF89F88DE20DF31D44919E82B0
:100E90008D82D12CC12C69817A81620D731D7A8B70
:100EA000698B842F90E09C8B8B8BE98DFA8DA081D0
:100EB000B18140FF82C0F1E0BF126FC0AF126DC0C0
:100EC0001C96ED91FC912F813885A4014C0D5D1D80
:100ED00069897A89898D9A8D0995EB89FC89F595BF
:100EE000E7954E2F5FEFC51AD50A6D817E818D89FA
:100EF0009E89680F791F7E836D8398E0C916D1049F
:100F000081F6AFEF2A1A3A0AEB81FC81E40DF51D58
:100F1000FC83EB83F5E02F16310409F0B3CF2F816A
:100F2000388526153705B9F0A98DBA8DED91FC915C
:100F3000B1E0BB1257C0AB1255C069817A816B5FBB
:100F40007F4F0088F189E02D830128E030E0A40183
:100F5000898D9A8D0995A98DBA8DED91FC91119786
:100F60000688F789E02DCD016A960FB6F894DEBFAA
:100F70000FBECDBFDF91CF911F910F91FF90EF90EA
:100F8000DF90CF90BF90AF909F908F907F906F90A9
:100F90005F904F903F902F9009941E96ED91FC9199
:100FA000EF80F88409851A8592014D815E816B81FD
:100FB0007C81898D9A8D099590CF2F813885261552
:100FC000370509F48ACF31E0B31207C0A31205C078
:100FD0001C96ED91FC91930178CF1E96ED91FC91BA
:100FE0007301E0CF6B857C85641975090684F785EC
:100FF000E02D73010F8518899201A401898D9A8DC6
:101000000995A9CFF901349694913297459154915D
:10101000D91AB7E0DB9E400D511D1124F90125912D
:1010200034913C8B2B8BFA0125903490FA01329647
:10103000749031963491398B329664903196449005
:1010400041E04C1518F04A1508F07FC0662D062CBB
:10105000000C770B7C836B83842D042C000C990B84
:101060009E838D83A98DBA8DED91FC911197028499
:10107000F385E02DCD010995512CD12CC12CEA2D01
:10108000F0E0FA87E9872B2D30E03C872B87A4011D
:10109000440D511D47FC5A95588F4F8B69817A81B9
:1010A000660D711D67FC7A957E876D877989C716F5
:1010B00008F051CF2C2D30E04D815E81420F531F3F
:1010C000A985BA854A9FC0014B9F900D5A9F900DEC
:1010D0001124FC01E80DF91DF88BEF87852D612C9B
:1010E0004F89588D420F531F5E8B4D8B671408F04C
:1010F00050C044244394480E877041F4C1010196C6
:10110000EB89FC89E20DF31DD4901C01D7FE19C0B8
:10111000A98DBA8DED91FC91662D70E0B1E0BB1206
:1011200019C0AB1217C02D853E85620F731F048452
:10113000F585E02D2F8138854D895E89898D9A8DC1
:101140000995DD0C6394842DD1CF1E821D821C82F3
:101150001B8288CF4B815C81640F751FAB85BC857A
:101160006A9FC0016B9F900D7A9F900D1124698139
:101170007A81680F791F0684F785E02DEF80F88467
:1011800009851A859D014F855889898D9A8D099504
:10119000D8CF570CC3948ACF6A960FB6F894DEBFA7
:1011A0000FBECDBFDF91CF911F910F91FF90EF90B8
:1011B000DF90CF90BF90AF909F908F907F906F9077
:1011C0005F904F903F902F9008958F929F92AF9293
:1011D000CF92EF92FF920F931F93CF93DF93EC0187
:1011E000262F898D9A8D009709F051C06A30D1F46D
:1011F0001D861C868D8948E0849F900111248E8570
:101200009F85820F931F9F878E8781E090E0DF91FB
:10121000CF911F910F91FF90EF90CF90AF909F9043
:101220008F9008956D3089F3CC88AD888F8988239D
:10123000C1F08C859D8536E0C39E800D911D1124E3
:10124000488559854817590764F44E855F851D8682
:101250001C8638E0A39EC0011124840F951F9F8730
:101260008E87EA88FB88088919894E855F856C8599
:101270007D85CE010E94C0062C898C859D8546E027
:10128000249F800D911D11249D878C87BECF6A30CD
:1012900069F41D861C86FC013896E4912D898E85A3
:1012A0009F85E29F800D911D1124ADCF6D3009F413
:1012B000ACCFFC0134963491631708F4A6CF329674
:1012C000E491E61708F4A1CFFC0132968590949042
:1012D000462F431B342F47E0349F800C911C112470
:1012E000F401329634913196E4913323A9F1EE233F
:1012F00099F1CC88F4013596E491AD884F89442367
:1013000001F10E2E000CFF0BE30FF11DCE9EA0018C
:10131000CF9E500D11246C857D85460F571F688523
:101320007985641775076CF44E855F851D861C866C
:10133000FC013896E491AE9E400D511D11245F874B
:101340004E87EA88FB88088919894E855F856C85F8
:101350007D85CE010E94C006F4013496E4912C896B
:101360008C859D85E29F800D911D11248DCF6F92FC
:101370007F928F929F92AF92BF92CF92DF92EF9225
:10138000FF920F931F93CF93DF93EC016B015A01F0
:1013900039014801E881F9810284F385E02D09953E
:1013A000E881F9810288F389E02D87019301A50185
:1013B000B601CE010995A501480D591D41505109AD
:1013C000E881F9810288F389E02D9301B601CE010D
:1013D0000995E881F9810088F189E02D9401A50142
:1013E000B601CE010995C60CD71CB6016150710932
:1013F000E881F9810088F189E02D9401A501CE01F1
:101400000995E881F9810688F789E02DCE01DF9101
:10141000CF911F910F91FF90EF90DF90CF90BF90F1
:10142000AF909F908F907F906F9009946F927F9272
:101430008F929F92AF92BF92CF92DF92EF92FF92E4
:101440000F931F93CF93DF935C01EB016A01490176
:1014500038018701DC01ED91FC916217730719F5E2
:10146000641675062CF0962D872D3A01C92ED82EBC
:101470009601261937092F5F3F4F048CF58DE02D1B
:10148000A301BE01C5010995DF91CF911F910F9175
:10149000FF90EF90DF90CF90BF90AF909F908F9094
:1014A0007F906F9008954615570591F426173707DA
:1014B00024F0892D4B01C22FD82F9E0128193909FC
:1014C0002F5F3F4F068CF78DE02DA601B401DACFD8
:1014D0000284F385E02D0995D501ED91FC910488F6
:1014E000F589E02D83019401A601BE01C50109958E
:1014F000D501ED91FC910688F789E02DC501DF91BA
:10150000CF911F910F91FF90EF90DF90CF90BF9000
:10151000AF909F908F907F906F900994EF92FF9281
:101520000F931F93DC011A960D911C911B9718962F
:101530002D913C911997ED91FC9100A0F1A1E02D26
:101540007B0150E040E070E060E009951F910F9151
:10155000FF90EF9008954F925F926F927F928F92DB
:101560009F92AF92BF92CF92DF92EF92FF920F9332
:101570001F93CF93DF936C012B015A01390148016E
:10158000DC01ED91FC910284F385E02D0995E201E7
:10159000640C751CD601ED91FC91C615D7055CF461
:1015A0000088F189E02D87019401A501BE01C601E3
:1015B00009952196EFCF0688F789E02DC601DF91C6
:1015C000CF911F910F91FF90EF90DF90CF90BF9040
:1015D000AF909F908F907F906F905F904F90099405
:1015E0008F929F92AF92BF92CF92DF92EF92FF9233
:1015F0000F931F93CF93DF93EC015B014A016901C5
:10160000E881F9810284F385E02D099595012C0D7F
:101610003D1D21503109E881F9810488F589E02DCB
:1016200078018401A401B501CE010995E881F98111
:101630000688F789E02DCE01DF91CF911F910F91A0
:10164000FF90EF90DF90CF90BF90AF909F908F90E2
:1016500009948F929F92AF92BF92CF92DF92EF92B6
:10166000FF920F931F93CF93DF93EC015B014A012D
:1016700069017801E881F9810284F385E02D0995FB
:10168000C80CD91C860101501109E881F981048830
:10169000F589E02D9501A401B501CE010995E881F8
:1016A000F9810688F789E02DCE01DF91CF911F9156
:1016B0000F91FF90EF90DF90CF90BF90AF909F90F1
:1016C0008F900994EF92FF920F931F93DC01ED919D
:1016D000FC9100A0F1A1E02D09951F910F91FF90C1
:1016E000EF9008950F931F93DC01ED91FC91068C10
:1016F000F78DE02D09951F910F9108950F931F937A
:10170000DC01ED91FC91048CF58DE02D09951F9184
:101710000F910895DC01ED91FC910084F185E02D9D
:1017200009942F923F924F925F926F927F928F9285
:101730009F92AF92BF92CF92DF92EF92FF920F9360
:101740001F93CF93DF9300D000D000D0CDB7DEB78A
:101750003C016A013E832D83FC82EB825801A41A6E
:10176000B50AB7FE03C0B194A194B1088D809E80E4
:10177000861A970A97FE03C09194819491088A145F
:101780009B045CF0902F812F0D811E819D838E83A1
:101790009C2D8D2D6B01692F782F0C151D055CF08C
:1017A0009D818E817E836D83692F782F902F812F6D
:1017B0008601C92ED82E1601201A310A2B012D813F
:1017C0003E81421A530A57FE03C051944194510876
:1017D000710137FE03C03FEFE31AF30AF594E79473
:1017E0008D819E81861797075CF5A1E0B0E0BA83F2
:1017F000A983C016D1064CF1D301ED91FC9104846C
:10180000F585E02D2B813C81A8016D817E818A14B4
:101810009B041CF04D815E81B801C3010995E41859
:10182000F508F7FE0AC02D813E8189819A81280F33
:10183000391F3E832D83E20CF31C0F5F1F4FD9CF5E
:101840002FEF3FEF3A832983D4CF26960FB6F89433
:10185000DEBF0FBECDBFDF91CF911F910F91FF90E3
:10186000EF90DF90CF90BF90AF909F908F907F9040
:101870006F905F904F903F902F9008950F931F931C
:10188000CF93DF931F92CDB7DEB78C01698360E001
:10189000FC01868D0E946C0341E050E0BE016F5F49
:1018A0007F4FF801838D948D0E949A040F90DF91F1
:1018B000CF911F910F910895CF93C82F87FDCFE748
:1018C000C093010561E282EE94E00E943E0C6C2F11
:1018D000606882EE94E00E943E0C60E282EE94E04A
:1018E000CF910C943E0CCF938091FF0487FD13C0E1
:1018F00061E00E949A0360E08091FF040E946C0303
:1019000061E070E080E090E00E94130561E080916A
:10191000FF040E946C03C0910205C83008F0C7E0C4
:10192000C093020561E282EE94E00E943E0C6C2FAF
:10193000606182EE94E00E943E0C60E282EE94E0F0
:101940000E943E0C809101050E945C0C60E282EED8
:1019500094E00E943E0C6CE082EE94E0CF910C94F7
:101960003E0CFF920F931F93CF93DF93909103054B
:10197000992339F0809104058F5F8917E8F58093EA
:101980000405D0910705D695D695D69584E5D89FC0
:1019900080011124809108058695869586958D177E
:1019A00080F16D2F606482EE94E00E943E0CC09145
:1019B0000505F09006056C2F606882EE94E00E94A9
:1019C0003E0C61E0809100050E946C034F2D50E0B9
:1019D0006C2F70E0461B570B4F5F5F4F600F711FFE
:1019E00060507F4F8091FD049091FE040E949A0404
:1019F000DF5F0C5A1F4FCECF109204050E94730C6C
:101A0000C0CF60E482EE94E00E943E0C83E58093B8
:101A10000505109206058FE28093070510920805D0
:101A2000DF91CF911F910F91FF9008951F93CF9356
:101A3000DF93EC01162F60E20E943E0C6CE0111166
:101A40006DE0CE01DF91CF911F910C943E0CFC0113
:101A500077FD55C080859185681779070CF04FC0D8
:101A600057FD4DC082859385481759070CF047C034
:101A70008689823009F444C0833009F44EC0813035
:101A800031F48FE290E0861B970BBA01AC01842FF2
:101A9000A62F93A1691708F4962F93A394A19A17E0
:101AA00008F49A2F94A395A1891708F4982F95A369
:101AB00096A1981708F4982F96A3CA0157FD079688
:101AC000E3E095958795EA95E1F7A4E5A89FF001F5
:101AD000A99FF00D1124E60FF71FE050FF4FCA0138
:101AE00068E070E00E949B1A41E050E001C0440FA2
:101AF0008A95EAF78081232BB9F0842B808308959F
:101B000083E590E0DC01A61BB70BBD018FE290E0FE
:101B1000DC01A41BB50BAD01BACF83E590E0841BBB
:101B2000950BAB01BC01B3CF40958423E7CF08955B
:101B300090E080E00895E0E0F1E088EF91E0DF01DF
:101B40009C011D9221503040E1F7109205058091D3
:101B50000605833508F483E5809306051092070592
:101B6000809108058F3208F48FE280930805109267
:101B7000EF041092EE041092F1041092F004089514
:101B80000E94F51BFB0101900020E9F73197AF019E
:101B9000461B570BDC01ED91FC910280F381E02D97
:101BA00009948F929F92AF92BF92EF92FF920F9300
:101BB0001F93CF93DF93CDB7DEB7A1970FB6F894FD
:101BC000DEBF0FBECDBF7C01FA01CB0119A22230CE
:101BD00008F42AE08E010F5D1F4F822E912CB12C4C
:101BE000A12CBF01A50194010E94A217F901CA010D
:101BF0006A300CF5605DD8016E938D01232B242B88
:101C0000252B79F790E080E0109721F0BD01C70106
:101C10000E94C20DA1960FB6F894DEBF0FBECDBFD5
:101C2000DF91CF911F910F91FF90EF90BF90AF90F8
:101C30009F908F900895695CDECFCF92DF92EF92F4
:101C4000FF920F931F93CF93DF938C016B01770F5C
:101C5000EE08FF08F7FE21C06DE20E944505EC0189
:101C600044275527BA014C195D096E097F092AE0FE
:101C7000C8010E94D10DC80FD91F6CE373E0C801E1
:101C80000E94C20D8C0F9D1FDF91CF911F910F916C
:101C9000FF90EF90DF90CF9008952AE0B701A60162
:101CA0000E94D10DEC01E9CF4F925F926F927F922B
:101CB0008F929F92AF92BF92CF92DF92EF92FF925C
:101CC000CF93DF93EC016A017B01AB019601CB015D
:101CD000B6010E94611A6FE373E081111AC04601D8
:101CE0005701E894B7F82FEF3FEF4FE75FE7C501E3
:101CF000B4010E94611A811126C02FEF3FEF4FE718
:101D00005FE7C501B4010E9440181816E4F463E4CB
:101D100073E0CE010E94C20D7C016CE373E0CE0142
:101D20000E94C20D8E0D9F1DDF91CF91FF90EF900D
:101D3000DF90CF90BF90AF909F908F907F906F90EB
:101D40005F904F9008952FEF3FEF4FE75FE4C7019B
:101D5000B6010E949F1918161CF467E473E0D9CFEE
:101D60002FEF3FEF4FE75FECC701B6010E9440182D
:101D700087FDF3CF20E030E0A901C701B6010E9442
:101D80004018B12CA12C87FF09C06DE2CE010E9442
:101D900045055C01F7FAF094F7F8F0942AE037ED86
:101DA00043EA5BE3C701B6010E94D4172B013C0153
:101DB0000E94BE186B017C010E94ED189B01AC01D2
:101DC000C301B2010E94D3172B013C012AE0B701E5
:101DD000A601CE010E94D10D7C01EA0CFB1C6EE233
:101DE000CE010E944505E80EF91E20E030E040E2F9
:101DF00051E4C301B2010E94F4192B013C010E947D
:101E0000BE184B01B12CA12C2AE0B501A401CE01D2
:101E10000E94D10DE80EF91EC501B4010E94ED1813
:101E20009B01AC01C301B2010E94D31720E030E056
:101E300040E251E40E94F4190E94BE18AB0170E028
:101E400060E02AE0CE010E94D10DE80EF91E65CFB8
:101E50001F93CF93DF9385ED8093BC0080917B032C
:101E600090917C03A0917D03B0917E030796A11D04
:101E7000B11D23E0B695A795979587952A95D1F73B
:101E80002091BC0024FD03C01092C30352C04091B6
:101E90007B0350917C0360917D0370917E03452B01
:101EA000462B472B69F30097A105B10541F02AE2C3
:101EB0002A95F1F700C00197A109B109E1CF8091FE
:101EC0007A03C1E0C0937903882399F1D091B800D7
:101ED0001091BA008091BC008A7B8093BC0060E0C6
:101EE00082E10E946C0360E083E10E946C03109227
:101EF000C303C093C5031092C40361E082E10E9452
:101F00006C0361E083E10E946C038091B9008E7FD5
:101F10008093B9008091B9008D7F8093B90088E4E7
:101F20008093B80085E48093BC001093BA00D093EE
:101F3000B800DF91CF911F9108951F920F920FB6B5
:101F40000F9211242F933F938F939F93AF93BF933F
:101F50008091960490919704A0919804B09199046F
:101F60003091F40323E0230F2D3758F50196A11D7E
:101F7000B11D2093F4038093960490939704A0934B
:101F80009804B09399048091F5039091F603A09181
:101F9000F703B091F8030196A11DB11D8093F503DD
:101FA0009093F603A093F703B093F803BF91AF911A
:101FB0009F918F913F912F910F900FBE0F901F9087
:101FC000189526E8230F0296A11DB11DD2CF1F92AE
:101FD0000F920FB60F9211242F933F934F935F935D
:101FE0006F937F938F939F93AF93BF93EF93FF93E1
:101FF00089EF93E00E94CA05FF91EF91BF91AF91E5
:102000009F918F917F916F915F914F913F912F9110
:102010000F900FBE0F901F9018951F920F920FB642
:102020000F9211242F938F939F93EF93FF93E0913F
:102030000904F0910A048081E0910F04F0911004EA
:1020400082FD1BC09081809112048F5F8F7320915D
:102050001304821741F0E0911204F0E0E750FC4FC6
:10206000958F80931204FF91EF919F918F912F9103
:102070000F900FBE0F901F9018958081F4CF1F9284
:102080000F920FB60F9211242F933F934F935F93AC
:102090006F937F938F939F93AF93BF93EF93FF9330
:1020A0008091B900887F803609F44AC0F0F5883203
:1020B00009F4A5C018F5803109F499C0B8F4882353
:1020C00009F4F5C0883009F492C0FF91EF91BF91F7
:1020D000AF919F918F917F916F915F914F913F91C0
:1020E0002F910F900FBE0F901F901895883109F413
:1020F00086C0803251F78093C20314C0803409F443
:102100009BC040F48033B9F38833F9F68093C2035F
:1021100085ECAEC0803509F483C0883509F494C0DD
:10212000883499F60E94280FD0CF883909F48AC0E4
:1021300038F5883729F050F4883611F0803729F6C1
:1021400083E08093C3031092C10355C0883809F41B
:1021500079C0803919F0803809F0B7CF8091C10378
:10216000803208F06FC0E091C10381E08E0F809350
:10217000C1038091BB00F0E0EF55FC4F80833BC072
:10218000803B39F0D0F4803A09F477C0883A09F0FE
:102190009CCF84E08093C3031092A00310929F030E
:1021A000F0E0E0E0099580919F0381110FC081E08C
:1021B00080939F0310927F0309C0803C09F4A8CF4D
:1021C000883C09F4A5CF883B09F07FCFE091A003BC
:1021D00081E08E0F8093A003F0E0E158FC4F8081F6
:1021E0008093BB009091A00380919F0329C08091B0
:1021F000E8038093BB0085EC8093BC0066CF909190
:10220000E7038091E603981758F5E091E70381E032
:102210008E0F8093E703F0E0EA53FC4F8081E9CF13
:10222000E091E70381E08E0F8093E7038091BB008C
:10223000F0E0EA53FC4F80839091E7038091E6033E
:102240009817C8F285E8D8CFE091E70381E08E0FB8
:102250008093E7038091BB00F0E0EA53FC4F80835A
:102260008091C50381115ECF81E08093C40384EA2D
:102270008093BC001092C30328CF85EC8093BC00F0
:102280001092C3038091C103803230F4E091C10306
:10229000F0E0EF55FC4F10826091C10370E081EADD
:1022A00093E0F0E0E0E009951092C1030ECF1092A8
:1022B000C20338CFCF92DF92EF92FF920F931F931A
:1022C000CF93DF93E9EFF3E01382128288EE93E07D
:1022D000A0E0B0E084839583A683B78382E093E097
:1022E0009183808385EC90E09587848784EC90E0EF
:1022F0009787868780EC90E0918B808B81EC90E0D3
:10230000938B828B82EC90E0958B848B86EC90E0B3
:10231000978B868B118E128E138E148EC2EED4E0A4
:102320001B821A8224E530E03D832C8380E390E019
:102330009F838E83398728879B878A871E8A1D867D
:102340001C861F861E86FF24F394FD8AFC8A8FEF6D
:102350009FEF9B8B8A8B998B888BFF8A188E1A8EA6
:10236000198E84E193E0998388838CE190E00E9448
:10237000D01A8C018BE0E82ED8011B96EC921B97AB
:1023800081E11C968C931C978FEF1E968C931E9761
:1023900082E11D968C931D97E3E1F6E0E491F0E075
:1023A000EE0FFF1FE250FA4F85919491F801968B42
:1023B000858BE5EFF5E0E4915A96EC935A97EAE1C4
:1023C000F6E0E491F0E0EE0FFF1FE250FA4F859146
:1023D0009491F801908B8787ECEFF5E0E4915796A4
:1023E000EC935797E9E1F6E0E491F0E0EE0FFF1F80
:1023F000E250FA4F85919491F801928B818BEBEF2B
:10240000F5E0E4915996EC9380E099E0ADE3B0E01B
:10241000F80184839583A683B783CC24C394D12CFD
:10242000D186C0861286138E82E090E00E94D01A78
:1024300020E5DC012C9311961C92F8019383828392
:10244000118210821C8F0B8F83E18E8FED8EE6EA56
:10245000F4E08EE994E0978F868F82EA94E0958F7E
:10246000848F8AE994E091A380A312AE12AA13AAE2
:1024700014AA15AA80E090E0AFE7B3E486AB97AB6F
:10248000A0AFB1AF84E690E0A0E0B0E086A797A748
:10249000A0ABB1AB118E108ED38EC28EF3AE80E0A6
:1024A00090E0A0E0B0E480839183A283B38340E016
:1024B00050E060EA70E4448355836683778340E0AC
:1024C00050E060E87FE340875187628773878487A5
:1024D0009587A687B78780E090E0A0E0BFE3808B78
:1024E000918BA28BB38B80E090E0A0E2B1E4848B6F
:1024F000958BA68BB78B2FB7F8948091960490910B
:102500009704A0919804B09199042FBF46A557A5B0
:1025100060A971A9841B950BA60BB70B82A393A38B
:10252000A4A3B5A3DF91CF911F910F91FF90EF90DE
:10253000DF90CF900895CF93DF93CDB7DEB72E977E
:102540000FB6F894DEBF0FBECDBF789484B582601D
:1025500084BD84B5816084BD85B5826085BD85B547
:10256000816085BD80916E00816080936E001092C5
:102570008100809181008260809381008091810040
:1025800081608093810080918000816080938000D1
:102590008091B10084608093B1008091B00081602F
:1025A0008093B00080917A00846080937A0080915B
:1025B0007A00826080937A0080917A0081608093B3
:1025C0007A0080917A00806880937A001092C1002E
:1025D000E0910904F0910A0482E08083E09105040F
:1025E000F09106041082E0910704F09108048FEC4A
:1025F000808310921104E0910D04F0910E0486E0A6
:102600008083E0910B04F0910C04808180618083D1
:10261000E0910B04F0910C04808188608083E0914C
:102620000B04F0910C04808180688083E0910B049E
:10263000F0910C0480818F7D80836BE473E089EFDF
:1026400093E00E94C20D6CE373E089EF93E00E9477
:10265000C20D2091FD043091FE043A832983D901F3
:102660001B968C918F3F49F061E00E949A0361E0D4
:10267000E981FA8183850E946C03A981BA818D91D9
:102680009C91892B09F4F8C01FB7F8948091E90355
:10269000811127C0E2E1F6E08491E4EFF5E0949146
:1026A000E82FF0E0EE0FFF1FEE53FA4FA591B49123
:1026B000EC91E92321F461E08AE00E946C0361E07F
:1026C0008AE00E949A038CB580618CBD8CB58064D1
:1026D0008CBD61E08DE00E949A0361E08BE00E9476
:1026E0009A038091E9038F5F8093E9031FBF81E024
:1026F000E981FA81838F61E0809100050E949A034D
:102700008091FF0487FD03C061E00E949A0384E08A
:102710008093020588E280930105109203051092D0
:1027200004050E94730C10920505809106058335FF
:1027300008F483E58093060510920705809108054B
:102740008F3208F48FE2809308050E94B10C8BE46D
:102750000E945C0C0E94B10C64EF71E080E090E09C
:102760000E9413050E949B0D81E08093F6048093E4
:10277000F70481E090E09093F5048093F404909343
:10278000F3048093F20461E08DE00E949A0361E01B
:102790008CE00E949A0360E082E00E949A038FE03E
:1027A0000E94CB0397FD0396BC01759567957595BF
:1027B0006795072E000C880B990B0E94EF18609309
:1027C000A2047093A3048093A4049093A5048EE0C4
:1027D0000E94CB0397FD0396BC017595679575958F
:1027E0006795072E000C880B990B0E94EF186093D9
:1027F0009A0470939B0480939C0490939D04809111
:10280000E00481117AC0E091C404F091C504C08055
:10281000D180E280F380C092CC04D092CD04E092CB
:10282000CE04F092CF04E091C204F091C304808101
:102830009181A281B3818093D0049093D104A0931D
:10284000D204B093D3048090DC049090DD04A09077
:10285000DE04B090DF04A5019401C701B6010E9417
:102860009F191816D4F58092CC049092CD04A092B2
:10287000CE04B092CF0441C061E0E981FA81848541
:102880000E949A03A981BA811A968C911A978B7F1C
:10289000F9F460E01C968C910E946C03A981BA81C6
:1028A0001D968C918F3F49F061E00E949A0361E090
:1028B000E981FA8185850E946C03A981BA811E96FF
:1028C0008C918F3F09F413CF60E00E949A030FCFE1
:1028D00061E0E981FA818485DFCF8090D80490900F
:1028E000D904A090DA04B090DB04A5019401C701DB
:1028F000B6010E94401887FDB6CF81E08093E004C6
:102900001092EF041092EE041092F1041092F00471
:1029100064E573E082EE94E00E94C20D6091F203E0
:102920007091F30382EE94E00E941D0E6CE573E05B
:1029300082EE94E00E94C20D6091F0037091F10369
:1029400082EE94E00E941D0E65E673E082EE94E054
:102950000E94C20D4091EC035091ED036091EE0393
:102960007091EF0382EE94E00E94540E6EE673E0E5
:1029700082EE94E00E94C20D6091EA037091EB0335
:1029800082EE94E00E941D0E0E94B10C0E949B0DED
:10299000EEECF5E08491ECEEF5E0F491F983EAE0F9
:1029A000F6E0F491FD83F11174C264E573E089EF00
:1029B00093E00E94C20D6091F2037091F30389EFDE
:1029C00093E00E941D0E6CE573E089EF93E00E9496
:1029D000C20D6091F0037091F10389EF93E00E94C2
:1029E0001D0E65E673E089EF93E00E94C20D4091F1
:1029F000EC035091ED036091EE037091EF0389EFCA
:102A000093E00E94540E6EE673E089EF93E00E941B
:102A1000C20D6091EA037091EB0389EF93E00E948D
:102A20001D0E8FE00E94CB03BC01990F880B990B00
:102A30000E94EF189B01AC0160E070EC8FE794E41A
:102A40000E94451820E030E040E85FE30E94D31781
:102A500020E030E543EC57E40E94F4190E94AC19E1
:102A60006B017C0121E73FE54DE850E30E94F4193A
:102A7000A70196010E94F419A70196010E94F4197A
:102A80004B015C0120E630EA47E959E3C701B60192
:102A90000E94F41927E432EC44E35AE30E94D4176D
:102AA0009B01AC01C501B4010E94D4179B01AC018C
:102AB00060E070E080E89FE30E94451823E333E97B
:102AC00048E853E40E94D3176B017C01C092EC03E9
:102AD000D092ED03E092EE03F092EF0380E10E94CA
:102AE000CB0324E630E0DC010E94AF1A2FEF33E085
:102AF00040E050E00E9483173093EB032093EA03F9
:102B00008EE00E94CB0320E530E0DC010E94AF1A8A
:102B10002FEF33E040E050E00E9483173093F3033F
:102B20002093F20320E030E040EF51E4C701B6010A
:102B30000E94401861E087FDBEC120E030E044E320
:102B400052E4C701B6010E949F1960E018160CF00C
:102B5000B2C18DE00E946C0361E08CE00E946C03C6
:102B60008FE00E94CB0397FD0396BC017595679596
:102B700075956795072E000C880B990B0E94EF182E
:102B80006093A2047093A3048093A4049093A5047B
:102B90008EE00E94CB0397FD0396BC017595679567
:102BA00075956795072E000C880B990B0E94EF18FE
:102BB00060939A0470939B0480939C0490939D046B
:102BC0008091E004882309F42FC18FB7F8942091F5
:102BD0009604309197044091980450919904298764
:102BE0003A874B875C878FBF8091C8049091C90456
:102BF000A091CA04B091CB0449855A856B857C8528
:102C0000481B590B6A0B7B0B8091D4049091D5041F
:102C1000A091D604B091D704481759076A077B07DB
:102C200008F402C1E091C204F091C30440805180D5
:102C300062807380E091C604F091C704A301920101
:102C400060817181828193810E94D3176B017C0125
:102C50002091D0043091D1044091D2045091D304FA
:102C6000C301B2010E94D31769837A838B839C834B
:102C70002091B6043091B7044091B8045091B90442
:102C8000C701B6010E94F4192091CC043091CD0403
:102C90004091CE045091CF040E94D4174B015C01A7
:102CA0008092CC049092CD04A092CE04B092CF0436
:102CB0003090E10431101CC02091B2043091B30473
:102CC0004091B4045091B50469817A818B819C81D3
:102CD0000E94F4199B01AC01C501B4010E94D317F5
:102CE0006093CC047093CD048093CE049093CF0472
:102CF0008091CC049091CD04A091CE04B091CF04EA
:102D00008D839E83AF83B8870091DC041091DD042E
:102D10009091DE049E87A091DF04AD879801492F32
:102D20005A2F6D817E818F8198850E949F19181678
:102D30000CF0C6C0C801AE85BD858093CC049093CD
:102D4000CD04A093CE04B093CF04332009F4D3C0B4
:102D50002091B2043091B3044091B4045091B50471
:102D6000C701B6010E94F4196B017C012091BA04DD
:102D70003091BB044091BC045091BD0469817A81BB
:102D80008B819C810E94F4199B01AC016091CC0461
:102D90007091CD048091CE049091CF040E94D317FE
:102DA000A70196010E94D4176B017C019B01AC0125
:102DB000B8018E859D850E94401887FD16C0009140
:102DC000D8041091D904B091DA04BE87E091DB04F5
:102DD000ED8798014B2F5E2FB601C7010E94401866
:102DE00087FD03C08601EE86FD86E091C404F09164
:102DF000C504C801AE85BD8580839183A283B3835A
:102E00004092D0045092D1046092D2047092D304C4
:102E100029853A854B855C852093C8043093C90485
:102E20004093CA045093CB0460919E0470919F0418
:102E30008091A0049091A1040E94B7188B01709317
:102E4000F1036093F0031A821982C801098002C05D
:102E5000959587950A94E2F780FD51C060E08981DD
:102E60008D5F0E946C0349815A814F5F5F4F5A8387
:102E700049834830510549F780E090E0892B09F4F7
:102E80003FCD0E94B605882309F43ACD0E94000088
:102E900037CD81110E9443032D81E22FF0E0EE0F28
:102EA000FF1FE052FA4FA591B4918C9139813823DC
:102EB00009F47BCDB6CD8DE00E946C0360E04DCE71
:102EC0008090D8049090D904A090DA04B090DB04EC
:102ED000A50194016D817E818F8198850E944018A3
:102EE00087FF33CF8092CC049092CD04A092CE0481
:102EF000B092CF042ACFC12CD12C760137CF61E01C
:102F000089818C5FAECF052E97FB1EF400940E9442
:102F10009A1757FD07D00E94A21707FC03D04EF462
:102F20000C949A1750954095309521953F4F4F4FEF
:102F30005F4F089590958095709561957F4F8F4F65
:102F40009F4F0895A1E21A2EAA1BBB1BFD010DC0C5
:102F5000AA1FBB1FEE1FFF1FA217B307E407F50749
:102F600020F0A21BB30BE40BF50B661F771F881F25
:102F7000991F1A9469F760957095809590959B01BB
:102F8000AC01BD01CF010895A29FB001B39FC00164
:102F9000A39F700D811D1124911DB29F700D811D85
:102FA0001124911D08955058BB27AA270E94EB17A2
:102FB0000C9465190E94571938F00E945E1920F090
:102FC00039F49F3F19F426F40C9454190EF4E0954B
:102FD000E7FB0C944E19E92F0E94761958F3BA17A3
:102FE000620773078407950720F079F4A6F50C941F
:102FF00098190EF4E0950B2EBA2FA02D0B01B901F4
:1030000090010C01CA01A0011124FF27591B99F05E
:10301000593F50F4503E68F11A16F040A22F232F6A
:10302000342F4427585FF3CF469537952795A795BA
:10303000F0405395C9F77EF41F16BA0B620B730B61
:10304000840BBAF09150A1F0FF0FBB1F661F771FD2
:10305000881FC2F70EC0BA0F621F731F841F48F487
:10306000879577956795B795F7959E3F08F0B0CF10
:103070009395880F08F09927EE0F979587950895F7
:103080000E942A1908F481E008950E9459180C94AE
:1030900065190E945E1958F00E94571940F029F4F2
:1030A0005F3F29F00C944E1951110C9499190C940E
:1030B00054190E94761968F39923B1F3552391F3BB
:1030C000951B550BBB27AA2762177307840738F097
:1030D0009F5F5F4F220F331F441FAA1FA9F335D0F4
:1030E0000E2E3AF0E0E832D091505040E695001CA8
:1030F000CAF72BD0FE2F29D0660F771F881FBB1F62
:10310000261737074807AB07B0E809F0BB0B802D3F
:10311000BF01FF2793585F4F3AF09E3F510578F06B
:103120000C944E190C9499195F3FE4F3983ED4F334
:10313000869577956795B795F7959F5FC9F7880F3F
:10314000911D9695879597F90895E1E0660F771F91
:10315000881FBB1F621773078407BA0720F0621B22
:10316000730B840BBA0BEE1F88F7E09508950E944D
:10317000BE186894B1110C94991908950E947E1993
:1031800088F09F5798F0B92F9927B751B0F0E1F028
:10319000660F771F881F991F1AF0BA95C9F714C0D8
:1031A000B13091F00E949819B1E008950C949819EB
:1031B000672F782F8827B85F39F0B93FCCF3869511
:1031C00077956795B395D9F73EF49095809570956E
:1031D00061957F4F8F4F9F4F0895E89409C097FBEB
:1031E0003EF490958095709561957F4F8F4F9F4FDE
:1031F0009923A9F0F92F96E9BB279395F695879522
:1032000077956795B795F111F8CFFAF4BB0F11F4E4
:1032100060FF1BC06F5F7F4F8F4F9F4F16C088238B
:1032200011F096E911C0772321F09EE8872F762FC1
:1032300005C0662371F096E8862F70E060E02AF002
:103240009A95660F771F881FDAF7880F96958795EE
:1032500097F90895990F0008550FAA0BE0E8FEEFC3
:1032600016161706E807F907C0F012161306E4074A
:10327000F50798F0621B730B840B950B39F40A2643
:1032800061F0232B242B252B21F408950A2609F421
:10329000A140A6958FEF811D811D089597F99F6725
:1032A00080E870E060E008959FEF80EC08950024CE
:1032B0000A941616170618060906089500240A949B
:1032C00012161306140605060895092E0394000C21
:1032D00011F4882352F0BB0F40F4BF2B11F460FFB0
:1032E00004C06F5F7F4F8F4F9F4F089557FD9058D9
:1032F000440F551F59F05F3F71F04795880F97FBBA
:10330000991F61F09F3F79F0879508951216130673
:103310001406551FF2CF4695F1DF08C016161706A2
:103320001806991FF1CF86957105610508940895D7
:10333000E894BB2766277727CB0197F908950E9469
:103340002A1908F48FEF089516F00C94661A0C945D
:10335000541968940C944E190E947E19A8F399236D
:10336000C1F3AEF3DF93CF931F930F93FF92C92F57
:10337000DD2788232AF02197660F771F881FDAF749
:1033800020E030E040E85FEB9FE3883920F0803EAA
:1033900038F021968F770E94D417E8E6F0E004C059
:1033A0000E94D417E5E9F0E00E94741A8B01BE0177
:1033B000EC01FB2E6F5771097595771F880B990BE0
:1033C0000E94EF1828E132E741E35FE30E94071A09
:1033D000AF2D9801AE01FF900F911F91CF91DF911A
:1033E0000E94EB170C9465190E94071A0C9465193A
:1033F0000E94571938F00E945E1920F0952311F0B1
:103400000C944E190C94541911240C9499190E947F
:10341000761970F3959FC1F3950F50E0551F629F89
:10342000F001729FBB27F00DB11D639FAA27F00D1D
:10343000B11DAA1F649F6627B00DA11D661F829F44
:103440002227B00DA11D621F739FB00DA11D621F29
:10345000839FA00D611D221F749F3327A00D611D46
:10346000231F849F600D211D822F762F6A2F112428
:103470009F5750409AF0F1F088234AF0EE0FFF1F5B
:10348000BB1F661F771F881F91505040A9F79E3FB2
:10349000510580F00C944E190C9499195F3FE4F398
:1034A000983ED4F3869577956795B795F795E79508
:1034B0009F5FC1F7FE2B880F911D9695879597F911
:1034C00008950E942A19880B990B08959F3F31F0A7
:1034D000915020F4879577956795B795880F911D42
:1034E0009695879597F90895DF93CF931F930F9340
:1034F000FF92EF92DF927B018C01689406C0DA2E76
:10350000EF010E94071AFE01E894A59125913591DB
:1035100045915591A6F3EF010E94EB17FE0197012B
:10352000A801DA9469F7DF90EF90FF900F911F9157
:10353000CF91DF91089597FB072E16F4009407D0E2
:1035400077FD09D00E94B61A07FC05D03EF490958D
:1035500081959F4F0895709561957F4F08950E94C2
:10356000C417B7FF0895821B930B0895AA1BBB1BBA
:1035700051E107C0AA1FBB1FA617B70710F0A61B73
:10358000B70B881F991F5A95A9F780959095BC0194
:10359000CD010895EE0FFF1F0590F491E02D0994E1
:1035A0000F931F93CF93DF938230910510F482E045
:1035B00090E0E0910B05F0910C0530E020E0B0E0E8
:1035C000A0E0309799F42115310509F44AC0281B71
:1035D000390B24303105D8F58A819B81611571053D
:1035E00089F1FB0193838283FE0111C040815181E7
:1035F0000281138148175907E0F04817590799F4D9
:10360000109761F012960C93129713961C933296B2
:10361000CF01DF91CF911F910F91089500930B057A
:1036200010930C05F4CF2115310551F042175307C3
:1036300038F0A901DB019A01BD01DF01F801C1CF1A
:10364000EF01F9CF90930C0580930B05CDCFFE01D0
:10365000E20FF31F8193919322503109398328831C
:10366000D7CF2091090530910A05232B41F42091F1
:10367000FA023091FB0230930A052093090520914C
:10368000F8023091F9022115310541F42DB73EB70A
:103690004091FC025091FD02241B350BE09109057D
:1036A000F0910A05E217F307A0F42E1B3F0B281731
:1036B000390778F0AC014E5F5F4F2417350748F0AB
:1036C0004E0F5F1F50930A05409309058193919314
:1036D0009FCFF0E0E0E09CCFCF93DF930097E9F03D
:1036E000FC01329713821282A0910B05B0910C0558
:1036F000ED0130E020E01097A1F420813181820FAC
:10370000931F2091090530910A052817390709F000
:1037100061C0F0930A05E0930905DF91CF91089508
:10372000EA01CE17DF07E8F54A815B819E0141156A
:103730005105B1F7E901FB83EA8349915991C40F1F
:10374000D51FEC17FD0761F4808191810296840FEB
:10375000951FE90199838883828193819B838A8362
:10376000F0E0E0E012968D919C9113970097B9F5E7
:103770002D913C911197CD010296820F931F2091BC
:10378000090530910A052817390739F6309751F5A0
:1037900010920C0510920B05B0930A05A093090531
:1037A000BCCFD383C28340815181840F951FC8173A
:1037B000D90761F44E5F5F4F88819981480F591F87
:1037C000518340838A819B819383828321153105B4
:1037D00009F0B0CFF0930C05E0930B059ECFFD01EF
:1037E000DC01C0CF13821282D7CF81E090E0F89441
:0837F0000C94FA1BF894FFCFC2
:1037F80000000000000000000000000000000000C1
:1038080000000000000000000000000000000000B0
:10381800000000000000C0E0F0F8FCFCFEFFFCE047
:103828000000000000000000000000000000000090
:103838000000000000000000000000000000000080
:103848000000000000000000000000000000000070
:103858000000000000F8F8F8F8F8F8F8F8F8F8F8B8
:10386800F8F0F0E0E0C080C0FCFFFFFFFF7F3F7F83
:10387800FFFFFFFFFF000000000000000000000045
:103888000000000000000000000000000000000030
:103898000000000000000000000000000000000020
:1038A800000000000000000000000F1F3F7FFFFF26
:1038B800FFFFFFFFFFFFE7C7C7878F9F9FFFFFFF40
:1038C800C1C0E0FCFFFFFFFFFFFCFCFCFCFEFEFEAE
:1038D800FCFCF8F8F0E0C0C00000000000000000A8
:1038E80000000000000000000000000000000000D0
:1038F80000000000000000000000000000000000C0
:103908000080C0E0F1FBFFFFFFFFFF7F1F0F0F8765
:10391800E7FFFFFF1F1F3FF9F8F8F8F8F8F8FDFF79
:10392800FFFFFFFFFFFFFFFF7F3F0F0701000000C2
:10393800000000000000000000000000000000007F
:10394800000000000000000000000000000000006F
:10395800000000F0FEFFFFFFFFFFFFFFFFFFFFFE7D
:103968007E3F3F0F1FFFFFFFFCF0E0F1FFFFFFFF6F
:10397800FFFCF0010101010101010100000000004C
:10398800000000000000000000000000000000002F
:10399800000000000000000000000000000000001F
:1039A80000000000000000030303030303030301F6
:1039B80001010100000000000000030F1F3F7F7F8E
:1039C800FFFFFFFF7F7F1F030000000000000000D3
:1039D80000000000000000000000000000000000DF
:1039E800000000000000000000000D05800000003D
:1039F8000000EC054C0579053906AA0588059C05E3
:103A080000000000E5084C05980D970D270D80066D
:103A18008A0B620B7E0B720B910B8006AB06160DA0
:103A2800290BF00AAB0A8E0A160AB7090D0A006EAE
:103A3800616E00696E66006F7666005043442074BC
:103A480065737400542E5265663A2000532E4374F1
:103A5800726C3A2000542E5465726D3A20004875F5
:083A68006D656461643A200001
:00000001FF
